:020000040000FA
:1000000002005000000080FB12005FB900030200F4
:100010004AE4900001780F79018002F0A3D8FCD95E
:10002000FA90000FAA82AB83900062780F7901806A
:1000300015E493A3AC82AD838A828B83F0A3AA825A
:10004000AB838C828D83D8E9D9E71200C6120003F6
:1000500075D0007581BF75108075931E02000879F8
:10006000012268656C6C6F207869616F636169005B
:10007000D083D0822510F8C510C39824FBCEF20897
:10008000E520F208E9C0E07908E709F208DEFAD0D5
:10009000E0F9EFF208D0E0FED0E0F208EEF208E47A
:1000A00073A810E2FE08E208F520E9C0E07908E252
:1000B00008F709DFFAE208FFD0E0F9E208C0E0E261
:1000C00008C0E088102253C6BFE59EA2E640FA753C
:1000D000C6B81200F77C0F7D007A017B0012015335
:1000E0007C0E7D007A017B001201207AF47B0112E4
:1000F00000F6B29480EA2243FD03E5FD43FE10C200
:1001000080C281C29475F10075F30C53FF3FE5FF87
:1001100043868043C50BE5C543C2D8E5C2C2E92288
:10012000C3EC9401ED9400A2D265D0334024ECF8E6
:10013000EDF98A828B83E0F5C1A3AA82AB83A2E9A1
:1001400050FCC2E9E824FF18E934FFF9E87001E93E
:1001500070E02274FA120070EAF8EBF98C828D8359
:10016000E0A3AC82AD838A828B83F0A3AA82AB83A7
:0B01700070EAE8FAE9FB7F010200A141
:0400000500000050A7
:00000001FF
