:020000040000FA
:0300000002008279
:10005B000200B600000080FB12008BB90003020007
:10006B007CE4900001780279018002F0A3D8FCD9DE
:10007B00FA1200B112005E75D0007581BF020063E9
:10008B0079012243FD03E5FD43FE10C280C281C20C
:10009B009443CB08D2BB43CBE0E5CB53CBFCE5CBB6
:1000AB0043CB10D2AF2212008E80FEC0E0C0D0C076
:1000BB0082C08375C000900001E004F064FF7004FF
:0D00CB00E4F0B294D083D082D0D0D0E032E7
:040000050000008275
:00000001FF
