:020000040000FA
:0300000002006398
:1000130002010C00000080FB12006CB90003020017
:100023005DE4900001783679018002F0A3D8FCD911
:10003300FA900036AA82AB8390006F78037901802F
:1000430015E493A3AC82AD838A828B83F0A3AA8247
:10005300AB838C828D83D8E9D9E712007112001625
:1000630075D0007581BF02001B79012201001201C6
:1000730025900036E064017002A3E07055D294909D
:100083000001E060EC64236039900002C3E0943225
:10009300A3E09400A2D265D0335027900001E0C0C2
:1000A300E0900002E02404F8A3E03400F988828998
:1000B30083D0E0F0900002E02401F0A3E03400F0EC
:1000C300800B9000367403F0A3E4F0C294E4900034
:1000D30001F0900036E064037002A3E07093D280D5
:1000E3005386BF900002E0FCA3E0FD7A047B00127C
:1000F30001624386409000367401F0A3E4F090005F
:1001030002F0A3F0C280020080C0E0C0D0C082C071
:1001130083C28BE5C1900001F0D083D082D0D0D0D0
:10012300E03243FD03E5FD43FE10C280C281C29469
:1001330053C6BFE59EA2E640FA75C6B875F10075D1
:10014300F33C53FF3FE5FF43868043C50BE5C543BF
:10015300C2D8E5C2C2E943864043A884E5A822C3C6
:10016300EC9401ED9400A2D265D0334024ECF8ED79
:10017300F98A828B83E0F5C1A3AA82AB83A2E950FB
:10018300FCC2E9E824FF18E934FFF9E87001E970DB
:02019300E02268
:040000050000006394
:00000001FF
