:020000040000FA
:1000000002001700000080FB120020B9000302006C
:100010001112003912000375D0007581BF0200086B
:1000200079012243FD03E5FD43FE10C280C281C277
:100030009475C90043C9082222120023C280B294D9
:100040007E287F231200987001EF70F87E287F23AE
:100050001200987001EF70F87E287F2312009870CC
:1000600001EF70F87E287F231200987001EF70F87E
:100070007E287F231200987001EF70F87E287F237E
:100080001200987001EF70F87E287F23120098709C
:1000900001EF70F8D28080A67A307B75120038EEBE
:0900A00024FF1EEF34FFFFEE22E5
:0400000500000017E0
:00000001FF
